:020000040000FA
:1000000068040020D5000000B10F0000C30200000A
:1000100000000000000000000000000000000000E0
:10002000000000000000000000000000BB0F000006
:100030000000000000000000B30F0000EB00000013
:1000400033110000AF0F0000B50F0000E101000008
:10005000A5100000F5010000F7010000F901000003
:10006000FB010000DD010000DF010000DB010000FA
:10007000CD010000D10100002F110000311100005E
:10008000BD020000BF020000C1020000AD0F000071
:10009000D3010000D5010000D7010000C502000017
:1000A000C7020000B70F0000B90F000029110000BF
:1000B0002B1100002D110000CF010000D90100001C
:1000C0000348854600F06AF80048004739110000EF
:1000D00068040020064908688546064880470648A7
:1000E0000047FEE7FEE7FEE7FEE7FEE7FEE700006B
:1000F00000000000A9100000C100000003460B43EF
:100100009B0703D009E008C9121F08C0042AFAD2CD
:1001100003E00B780370401C491C521EF9D2704753
:10012000D2B201E00270401C491EFBD2704700228F
:10013000F6E710B513460A4604461946FFF7F0FFE6
:10014000204610BD30B504460020034600E05B1C8D
:10015000934203D2E05CCD5C401BF8D030BD70B55B
:100160000446002903D000202022012310E00028AB
:1001700001D00020C043C046C0460DE02546D54012
:100180008D4205D30D469540641B1D469540401990
:100190001546521E002DF1DC214670BD1CB50948E4
:1001A00000900948019005460126009C05E0E3689F
:1001B00007CC33430C3C98471034AC42F7D3FFF7DD
:1001C00083FF0000001400002014000070477047F7
:1001D0007047704770477047704770477047704767
:1001E000704781B000900098411E00910028FAD11C
:1001F00001B07047704770477047704710B51722BD
:10020000D20682180823DA41032A06D8920026A3D0
:100210009A58294B1C6814431C600CC90839002BE0
:1002200010D0C3699343C3610A680B79DB060DD410
:100230000368934303600A68496820292FD1416805
:1002400091432EE0C1691143C16110BD036813439E
:1002500003600A680369934303614A68112A03D162
:100260000A680369134303610A68436A934343625C
:100270000A68836A934383628A6881231340812BCF
:1002800003D10A68436A134343628A688223134096
:10029000822B07D10968826A0A43826210BD4168D5
:1002A0001143416010BDC04610005A5A20005A5AEE
:1002B00040005A5A80005A5A3040004070477047F8
:1002C0007047FEE77047704710B5B04988420CD0C0
:1002D000D449884204D0FF215031D34800F02AFF8E
:1002E0000120C1020A480B4B02E04021CB430748E2
:1002F000094A14681C40146013680B431360103AD9
:100300001168014005480843106010BDBFFFA5A556
:10031000FFF7A5A5FFF7FFFF4440004000005A5A31
:1003200070B50124A2020243BE4B9A420AD0FF22BA
:100330002432BD4B054618460E46114600F0FAFE23
:1003400031462846491E4A424A410169A14389185B
:10035000016170BDF0B585B015460E4604468B4868
:10036000844205D0AF48844200D0C7E0884800E00E
:10037000854888490A6802430A60022020610020FB
:100380002061A0683F218843B17BF27B0A4302438E
:10039000A2602069CC218843717B327CD207120F86
:1003A0000A43717CC907490F1143C9B20143216156
:1003B000606A79490140307B00040843317D49027D
:1003C000F27D52075209511801436162A16A777D9B
:1003D000002F039527D00491002D03D19248704936
:1003E00000F0A8FE7D20C1002846FFF7B8FE0146B8
:1003F0006A48FFF7B4FE01460A256F433846FFF707
:10040000AEFE401D2946FFF7AAFE012800D80120B4
:100410000F210F2800D3084600060906049A8A43D4
:1004200011460143039DB77D002F27D00491002D75
:1004300003D1EB485A4900F07DFE7D20C1002846DB
:10044000FFF78DFE01465548FFF789FE01460A2554
:100450006F433846FFF783FE401D2946FFF77FFEB6
:10046000012800D801200F210F2800D308460004DE
:100470000904049A8A4311460143039D0491A16231
:1004800032682046294600F0D3F80294606A0724B7
:1004900004407768002F37D0002D03D1D048404961
:1004A00000F048FE0121002C019105D001212046D9
:1004B000401E49000028FBD12846FFF750FE7D2151
:1004C000C900FFF74CFE01463448FFF748FE0146DD
:1004D0000A256F433846FFF742FE401D2946FFF7C5
:1004E0003EFE012800D801982E49884200D30846D4
:1004F0002D49049A0A401146014306E0B848642198
:1005000000F018FE00263BE0049902988162B5686D
:10051000002D34D00398002803D1B148204900F0C1
:1005200009FE2F0A0126002C314604D00121641E49
:100530004900002CFBD10398FFF711FE7D21C90073
:10054000FFF70DFE01461548FFF709FE01460A2593
:100550006F433846FFF703FE401D2946FFF7FFFDB6
:10056000012800D830460F498842029B00D3084634
:100570000002D96A0D4A0A400243DA6200E001260D
:10058000304605B0F0BDC04640005A5A0058004001
:1005900000085A5A34400040FFFDF8F840420F006E
:1005A000B2050000FF0F000000F0FFFFFF00F0FFAA
:1005B000002181614161C16081604160044A026043
:1005C00001830122130203618182C1828276704716
:1005D000801A0600B0B50C4605460120800228436B
:1005E000EC49884202D1002C07D109E06520810046
:1005F000E74800F09FFD002C02D00C48204005D0B9
:1006000065208000411CE24800F094FDFF20C043BB
:100610006969214203D1401CFAD30A20B0BD0020F1
:10062000B0BDC046005C0040A6130000FC80FFFC8B
:10063000F0B58DB017460B4606460125A80230439B
:10064000B16A3269019209030C0FD249884208D07D
:10065000FF212431FC480C951D4600F06BFD2B4614
:100660000C9D3069A843029630610A2006935843D6
:1006700009900020C1430791A11C0A9105950390A0
:10068000049006E02F460C9D0B9A501C6D00072A23
:1006900036D20B900C95EEB209983146FFF75FFD0C
:1006A0003946FFF75CFD401D0A21FFF758FD04465F
:1006B0000A983146FFF753FD3D460746201A811E32
:1006C000CCB27820C01BA042DCD3089106983146FA
:1006D000FFF745FD3919891CFFF741FD411B2F46E6
:1006E00000D2391A0C9D0B9A079881420898CCD2F7
:1006F00000290492039007910595C6D103A925C14D
:100700000598C4B20A982146FFF729FD0399CDB296
:10071000281A46083420069948430C973946FFF7B3
:100720001EFD2146FFF71BFD6421FFF718FD0B9509
:10073000281A401C3546F7B27E1E8742FAD8069822
:100740000C99FFF70CFD06462146FFF708FD0C90BB
:1007500014213046FFF703FDA11C8842029E12D9E6
:10076000B16A0A0E0F2113460B40041BA41EA342BC
:1007700002D2059A821A0E32100700090906B26ADF
:100780008A438018B0623F2001040C9CE203521897
:100790000A400B99491B0140BB069B0C591889184C
:1007A0000006A205121802408818B0640720049AB7
:1007B0000240716A8143881870620198C0070DD0A9
:1007C0000124A0023043EF49884204D0FF212431A4
:1007D000ED4800F0AFFC3069204330610DB0F0BD52
:1007E000A613000002210161002101617047000091
:1007F000B0B50C460D490A680169C90707D0002A3F
:1008000005D0A1000A4B59580546904728461121AA
:1008100009014158C90708D006490968002904D0D0
:10082000A100054A515800F0BFFAB0BD54000020A5
:10083000480000206400002058000020F0B58BB074
:1008400014460D460646002905D10120C102C239D1
:10085000CD4800F06FFC0120099000020690844210
:1008600001D9042791E0002C00D18DE0019503947B
:1008700003200302099A9102D0020790100302900C
:10088000500308900F2080020A9004930591F46DA4
:1008900077693D460A9805400CD0089807420DD16B
:1008A000079807420CD10F420CD1029807400AD09A
:1008B000672708E00027002F19D01BE06A2702E015
:1008C000692700E0662730460843AE4A904206D0CA
:1008D00006997231AC4800F02DFC0599049BF06834
:1008E000A843F060306918433061002F02D10998A5
:1008F0000440CCD1002F039947D1481EC0B2069ABC
:100900001043059A3066491E0391002509957069C8
:1009100004460A990C40099F25D00899084209D13C
:100920000799084208D1104208D10299084007D11E
:10093000074606E06A2704E0692702E0662700E030
:100940006727304610438F49884206D00699723196
:100950008D4800F0EFFB059A049BF068A043F0601F
:10096000306918433061002F02D1356F6804CED44E
:10097000002F03D101980570401C0190002F0399AE
:1009800003D10029BFD100E0002738460BB0F0BDED
:10099000A6130000005C0040F0B583B014460D467D
:1009A0000646002902D0002C06D147E0FC48254924
:1009B00000F0C0FB002C41D0FA4A00950194F56D7F
:1009C00001240F2087027069074007D0810409D4F1
:1009D0001C495F3108421FD0692304E00023002B2B
:1009E00017D022E06A23A0023043904207D0B920FA
:1009F0004100EB48029300F09DFB029BE94AF0683E
:100A0000B843F06003200002316901433161002BDB
:100A10000BD12540D3D108E0410504D4C004C01750
:100A200067230340DFE76623DDE7002B07D1009D46
:100A3000287830666D1C019C641EBED100231846C8
:100A400003B0F0BDA1070000A6130000F0B589B007
:100A50000446B920400005900320010201229002C3
:100A60000790D002039010030190500306900F20CE
:100A70008002089002910492E76D65692E460898FD
:100A800006400DD0069805420ED1039805420DD1BF
:100A9000079805420CD1019805400AD0672508E067
:100AA0000025002D19D01AE06A2502E0692500E032
:100AB00066252046079B1843BA4B984205D0B84894
:100AC000059900F037FB049A0299E068B043E060B2
:100AD000206908432061002D01D11740CCD1002DA1
:100AE00002D0284609B0F0BD05988E30206601E09E
:100AF000002DF6D166693746089807400ED0069853
:100B000006420DD1039806420CD1079806420BD13C
:100B100035460198054008D0672506E0002516E017
:100B20006A2502E0692500E066252046079B1843F8
:100B30009C4B984205D09A48059900F0FBFA049A1C
:100B40000299E068B843E060206908432061059F8E
:100B50008F373E40BE42CBD12046079B1843914B76
:100B6000984205D08E48059900F0E4FA049A02995B
:100B70005002E2688243E260BE42B2D0002D049A85
:100B8000B8D0AEE7005C0040A6130000F0B58BB013
:100B90000D460446002903D18148804900F0CAFA75
:100BA000E868052804D37D48411CFE4800F0C2FADD
:100BB000A879012807D16869B921490072398842AA
:100BC00001D90427E7E0009503231906606908406E
:100BD00001225106884203D00027884204D1DAE07E
:100BE0006427884200D1D6E0970220463843EC497A
:100BF000069088420493059206D0B9204100E94846
:100C000000F098FA059A049B7F200002E168814376
:100C1000E1601002616A81436162009EF168002513
:100C20000029284600D1B0793278D20715D11A02AE
:100C3000B3881A400AD0DBB207AD6B80D2090243F9
:100C40003B46F03313432B80022505E05A00024354
:100C50003A4307AB1A80059D049B002915D00390E9
:100C600038466A186B0007ADEB18B768CE00083E2F
:100C70003D46F540EDB21D809B1C083E491EF7D154
:100C80001546009E049B0746039871690029059A42
:100C900014D0B179012911D100280FD1B0881902DF
:100CA000014003D0C809C019F13002E04000C0196A
:100CB000401C690007AA50526D1C059A002D42D0B5
:100CC000B92040000390002601960295E66D0F20A2
:100CD00085026069054007D0810409D42F493F315E
:100CE00008421CD0692704E00027002F14D01FE021
:100CF0006A270698AA49884205D0AA48039900F0B5
:100D000019FA059A049BE068A843E060180221697B
:100D100001432161002F0BD11640D7D108E04105D6
:100D200004D4C004C01767270740E2E76627E0E75E
:100D3000002F09D1019E700007A9085A2066761C71
:100D4000029D6D1EC0D10027002F24D1009DA879DF
:100D50000027002807D16A69002A04D029692046A3
:100D6000FFF71AFE0746A879012808D16A69002A08
:100D700005D0009801692046FFF760FD0746002F67
:100D800009D100980078400704D42046FFF75EFEA2
:100D9000074600E0002738460BB0F0BDC107000051
:100DA000A6130000005C0040F0B583B0002900D11C
:100DB000F3E043229200841803229502A7683D4085
:100DC00005D020220A707A0515D5682617E015236C
:100DD0001B01C318029315023D4065D000264E70DA
:100DE000CA69CE6000920A610122019212023A4061
:100DF00025D0102324E03A05D21767261640012299
:100E000092020243664B9A4209D0664A664B0190B1
:100E100010460F46194600F08DF9019839462268B0
:100E2000AA432260CE600A7E920600D4B5E00B6A27
:100E3000002B00D1B1E04A6A984703B0F0BD2023EF
:100E40000B70002A00D10E754A7D002A03D04E7522
:100E5000009A521E0A61019A92020243504B9A4232
:100E600009D0504A504B019010460091194600F0AD
:100E700061F9019800992268AA432260029A56609B
:100E80000A788B69134208D00B6A002B05D04A6A96
:100E900004460D46984720462946BA0504D50E60FB
:100EA0004E608E60CE600E617A0711D501220A7005
:100EB000029B1B680A754B700A7ED20708D00B6A2A
:100EC000002B05D04A6A04460D469847204629461D
:100ED0003A070DD508220A700A7E120708D50B6A58
:100EE000002B05D04A6A04460D46984720462946FD
:100EF000FA0725D001224A754A68002A02D08A687A
:100F0000002A0CD102220A700B6A002B05D04A6A13
:100F100004460D469847204629460022CA614A6881
:100F2000002A0DD08B68002B0AD0531C4B6012781E
:100F3000029B1A618A68521E8A60CA69521CCA6181
:100F4000BA072AD54A68002A02D08A68002A0CD13A
:100F500004220A700B6A002B05D04A6A04460D462B
:100F60009847204629460022CA614A68002A11D0C3
:100F70008B68002B0ED017231B01C0180068531C70
:100F80004B6010708868401E8860C869401CC8614A
:100F900003B0F0BD01200299486003B0F0BDC04627
:100FA000005C0040A6130000270500007047704752
:100FB000704770477047704770477047F0B581B011
:100FC0000B220146D1418A1E4E4E4D4F4E4C314DA3
:100FD0000E2A19D20121C90201430322D2029142F1
:100FE0002CD10F21C90222680A400121C9028A427C
:100FF00003D139883140014321602A46103221460D
:1010000010390968114327E00029E3D0012902D1F2
:101010002A463032F3E7FF2132311F4A0090104652
:1010200000F088F800980321C9028842D9D0012134
:101030000A039042D5D0C9028842E9D02168490408
:10104000890F03D13988314001432160214610398D
:101050000A681249114029432246103A1160398822
:10106000314008432060681C214614390A68024355
:101070000A600B48024691B20A1893B29B1A5D1E91
:10108000AB4125682D0401D4002BF4D148424841DE
:1010900001B0F0BD00005A5AD11300008FFF0000CC
:1010A000FFFF000070470000B0B5154A14881549CD
:1010B0000C4015480568154B1D402C1904605288DA
:1010C000134C14408568134A15402C198460046839
:1010D0006405114DAC4204D104681C4009198539DE
:1010E00001608168C9050D4B994204D181681140A6
:1010F00059220A4382600A480A490160B0BDC046CD
:10110000C0071000FF0700001840004000F8FFFF74
:10111000FF01000000FEFFFF0000E0FF000080FF75
:101120000000002000093D0070477047704770477D
:101130007047704700BFFEE7A4B00125E8020D909C
:10114000FFF73CFF874801462031874A53680B432D
:101150005360002717971697159711680143116080
:10116000824A10688249084003210B020193C0188B
:10117000106010687F4B18400B030093C01810607C
:1011800021201690880215901046143815A9FFF7F3
:1011900035F8794E3046FFF797F80EAC2046FFF74A
:1011A00007FA764A30462146FFF7D4F830462946FA
:1011B000FFF7B6F830462946FFF7B2F86906304621
:1011C0000391FFF707FAA9020291002827D1674E81
:1011D00030686749084030603068664908403060D0
:1011E000029870640D98706404242046FEF7F9FF9D
:1011F0000298B0642046FEF7F4FF0D98B064019C9D
:101200002046E830FEF7EDFF30685949084020439A
:10121000306030685749084000990843306018A88A
:10122000477008210170801C059028020B900695DC
:1012300068020490524C0C9710220892059821469F
:10124000FEF75CFF4F4E4C483060351D2821284684
:101250000A95FEF76CFF022009900D99F16030614C
:1012600074610898B0610C98B07270210891318156
:10127000706041482946FFF789FC6420FEF7B1FF02
:101280001221079135461C350D98F06009983061A0
:101290007561B1610698B072089830810C987060E1
:1012A00030680A99FFF772FC18A82946079AFEF7DA
:1012B00049FF002844D02D48049941640B9981646A
:1012C0002D4E3046FFF78EFA1DAD2846FFF770F918
:1012D00030462946294AFFF73DF801213046FFF7FD
:1012E0001FF830460399FFF775F900282DD11F4EDE
:1012F00030681F490840306030681E49084030603F
:10130000029870640D98706404252846FEF769FF02
:101310000298B0642846FEF764FF0D98B064019D02
:101320002846E830FEF75DFF306811490840284341
:10133000306030680F49084000990843306004E08D
:101340000A48049981640B9941647F1C0020C119EB
:101350002154401C1028FAD10B98F430FEF741FFBD
:101360006AE7C04620005A5A304000401401004845
:10137000FFF0FFFFFF0FFFFF0058004000D8B80547
:10138000040000201800002002E008C8121F08C155
:10139000002AFAD170477047002001E001C1121FF6
:1013A000002AFBD170472E2E2F2E2E2F2E2E2F2EC1
:1013B0002E2F4C69627261726965732F7372632F8D
:1013C000637733326C3031325F6C706932632E6315
:1013D000002E2E2F2E2E2F2E2E2F2E2E2F4C6962CA
:1013E0007261726965732F7372632F637733326C26
:1013F0003031325F7379736374726C2E6300000056
:1014000020140000000000201800000088130000D5
:101410003814000018000020500400009813000049
:1014200000093D00FF010203040560708090A0B038
:08143000C0D0E0F00000000054
:04000005000000C136
:00000001FF
