:020000040000FA
:10000000B0060020B9010000611300001B040000CD
:1000100000000000000000000000000000000000E0
:100020000000000000000000000000006B13000052
:10003000000000000000000063130000CF0100007A
:10004000DF1400005F13000065130000FF020000D2
:10005000511400004B0300004D0300004F0300004B
:1000600051030000FB020000FD020000F902000045
:10007000EB020000EF020000DB140000DD140000C2
:100080001504000017040000190400005D130000AF
:10009000F1020000F3020000F50200001D04000060
:1000A0001F0400006713000069130000D51400004E
:1000B000D7140000D9140000ED020000F702000080
:1000C00000F002F800F04CF812A030C808382418EC
:1000D0002D18AC4201D100F043F80FCCA246AB463C
:1000E0000CA730CF2D1B083F3F197C427F1E544484
:1000F0002D090426F441641EAC4201D300F030F80F
:100100000126334200D0FB1A3343984754465D46DC
:10011000DFE70000EC1700000C180000103A02D3D3
:1001200078C878C1FAD8520701D330C830C101D598
:1001300004680C6070470000704700000023002432
:1001400000250026103A01D378C1FBD8520700D30E
:1001500030C100D50B6070471FB51FBD10B510BD75
:1001600000F090F81146FFF7F7FF01F0BBF900F03F
:10017000A8F803B4FFF7F2FF03BC00F0AFF80000EB
:1001800070B505460C46164602E00FCC0FC5103E72
:10019000102EFAD2082E02D303CC03C5083E042E3B
:1001A00007D301CC01C5361F03E021782970641CF8
:1001B0006D1C761EF9D270BD09490868854609484C
:1001C000804709480047FEE7FEE7FEE7FEE7FEE757
:1001D000FEE7000005480649064A074B7047000045
:1001E0000000000055140000C1000000B000002015
:1001F000B0060020B0020020B0020020F8B5042AAA
:100200002CD3830712D00B78491C0370401C521E5C
:1002100083070BD00B78491C0370401C521E8307C8
:1002200004D00B78491C0370401C521E8B079B0F97
:1002300005D0C91ADF002023DE1B08C90AE0FFF73A
:100240009FFFF8BD1D4608C9FD401C46B4402C4325
:1002500010C0121F042AF5D2F308C91A521EF0D496
:100260000B78491C0370401C521EEAD40B78491CC1
:100270000370401C012AE4D409780170F8BD70476E
:1002800070477047754600F025F8AE460500694690
:100290005346C008C000854618B020B5FFF79AFF46
:1002A00060BCB64600260027C0C5C0C5C0C5C0C5D5
:1002B000C0C5C0C5C0C5C0C5403D490849008D4640
:1002C000704710B50446C046C0462046FFF751FFB0
:1002D00010BD000000487047180000200149182098
:1002E000ABBEFEE7260002007047704770477047BC
:1002F0007047704770477047704770477047704746
:1003000010B50446042803D309484B2101F0E8F84E
:100310003F480168664A114302230B4303600548C6
:100320000168072399430C431443046010BDC04681
:10033000D21800000420024081B000900098411EB5
:1003400000910028FAD101B070477047704770479C
:100350007047000010B51722D20682180823DA4130
:10036000032A06D8920026A39A58294B1C681443E6
:100370001C600CC90839002B10D0C3699343C361BA
:100380000A680B79DB060DD40368934303600A689F
:10039000496820292FD1416891432EE0C16911435A
:1003A000C16110BD0368134303600A680369934386
:1003B00003614A68112A03D10A6803691343036180
:1003C0000A68436A934343620A68836A9343836279
:1003D0008A6881231340812B03D10A68436A13433F
:1003E00043628A6882231340822B07D10968826A9C
:1003F0000A43826210BD41681143416010BDC0468E
:1004000010005A5A20005A5A40005A5A80005A5A2C
:1004100030400040704770477047FEE770477047B4
:1004200070B50124A2020243D64B9A420AD0FF22A1
:100430002432D54B054618460E46114601F050F8B9
:1004400031462846491E4A424A410169A14389185A
:10045000016170BD10B50221016100210161A34954
:1004600088420CD0C749884204D0FF215031C64889
:1004700001F036F80120C1020A480B4B02E040218E
:10048000CB430748094A14681C40146013680B43A7
:100490001360103A1168014005480843106010BD10
:1004A000BFFFA5A5FFF7A5A5FFF7FFFF444000404C
:1004B00000005A5AF0B585B015460E4604468B48E2
:1004C000844205D0F048844200D0C7E0884800E06C
:1004D000854888490A6802430A600220206100209A
:1004E0002061A0683F218843B17BF27B0A4302432D
:1004F000A2602069CC218843717B327CD207120F25
:100500000A43717CC907490F1143C9B201432161F4
:10051000606A79490140307B00040843317D49021B
:10052000F27D52075209511801436162A16A777D39
:10053000002F039527D00491002D03D1D348704993
:1005400000F0CEFF7D20C100284601F09BF8014657
:100550006A4801F097F801460A256F43384601F0D2
:1005600091F8401D294601F08DF8012800D801209E
:100570000F210F2800D3084600060906049A8A4373
:1005800011460143039DB77D002F27D00491002D14
:1005900003D1BE485A4900F0A3FF7D20C100284680
:1005A00001F070F80146554801F06CF801460A2543
:1005B0006F43384601F066F8401D294601F062F8A5
:1005C000012800D801200F210F2800D3084600047D
:1005D0000904049A8A4311460143039D0491A162D0
:1005E00032682046294600F06DFC0294606A0724B8
:1005F00004407768002F37D0002D03D1A34840492D
:1006000000F06EFF0121002C019105D00121204650
:10061000401E49000028FBD1284601F033F87D2117
:10062000C90001F02FF80146344801F02BF80146CB
:100630000A256F43384601F025F8401D294601F090
:1006400021F8012800D801982E49884200D3084695
:100650002D49049A0A401146014306E08B48642163
:1006600000F03EFF00263BE0049902988162B568E5
:10067000002D34D00398002803D18448204900F08D
:100680002FFF2F0A0126002C314604D00121641EC1
:100690004900002CFBD1039800F0F4FF7D21C90034
:1006A00000F0F0FF0146154800F0ECFF01460A2576
:1006B0006F43384600F0E6FF401D294600F0E2FF98
:1006C000012800D830460F498842029B00D30846D3
:1006D0000002D96A0D4A0A400243DA6200E00126AC
:1006E000304605B0F0BDC04640005A5A00580040A0
:1006F00000085A5A34400040FFFDF8F840420F000D
:10070000B2050000FF0F000000F0FFFFFF00F0FF48
:10071000002181614161C16081604160044A0260E1
:1007200001830122130203618182C18282767047B4
:10073000801A0600B0B50C46054601208002284309
:10074000EA49884202D1002C07D109E065208100E6
:10075000E74800F0C5FE002C02D00C48204005D030
:1007600065208000411CE24800F0BAFEFF20C04333
:100770006969214203D1401CFAD30A20B0BD002090
:10078000B0BDC046005C00407A180000FC80FFFC51
:10079000F0B583B0032A15D81446089A651CEDB24B
:1007A000ED0002AE083D0F46EF403770761C002D7D
:1007B000F8D100930192502102AA234600F068F874
:1007C00003B0F0BD0B2003B0F0BD0000F0B585B064
:1007D00006460B20002952D0002A50D00D46049224
:1007E0000127B8023043F549884204D065208100D2
:1007F000F34800F075FEFE20C043039002E0401C69
:10080000012B08D0424242417169012421403B46FC
:10081000F5D11346F3E70A20002930D00190049A5D
:10082000501E6521890002919439014331660020F0
:10083000002A24D00090A0023043E049884205D02D
:10084000DF480299049200F04BFE049A521E049273
:10085000039802E0401C012B08D0424242417369D8
:10086000022119403B46F5D11346F3E7002908D091
:10087000306F28706D1C049A1004DCD1009805B00C
:10088000F0BD019805B0F0BD005C00407A18000092
:10089000F0B58DB00B27002A71D0044692488142F2
:1008A0006DD8002C6BD0129D002D68D00C92139E39
:1008B000002E64D00B93080A0490059105D1C9B2AB
:1008C0000022204600F07EF903E00022204600F0DE
:1008D00013F900280B9901D00DB0F0BD03294ED8B3
:1008E0000197029603956520800006900127BD02BE
:1008F000FE20C0430A90481CC0B20B90FA490895EC
:1009000002E00029F8493DD10B9A100457D0079016
:100910000126B00220430990884204D0F34806998A
:1009200000F0DEFD0B9A521E0B920A9802E0401C6A
:10093000012B07D042424241616931403B46F6D12A
:100940001346F4E70029E8491CD00C9D287820665E
:100950000998884203D0E548069900F0C1FD6D1C56
:100960000C950A98089D02E0401C012BC9D0424218
:100970004241616929403B46F6D01346F4E73846C8
:100980000DB0F0BD0798002819D00998884209D009
:10099000069D2946B531D54800F0A2FDD348294629
:1009A00000F09EFD0A9802E0401C012B44D0424218
:1009B0004241616931403B46F6D11346F4E77D2060
:1009C0000001FFF7B9FC4B4E0498002851D10120DB
:1009D00087022743C44A9742059906D00699643195
:1009E000C24800F07DFDC04A0599802908D30E4613
:1009F00006996531BD4800F073FDBB4A31463D4E56
:100A0000E0683040E060480037490818801C80B238
:100A10002066974203D0B548069900F061FD0A9818
:100A2000401E029A63692B4059425941002B49D01C
:100A3000401CF7D30A2046E0002917D006990D463E
:100A40006C352566A848099A824202D0A74800F072
:100A500047FD0A9A02E0521C002907D1504250413A
:100A6000616929423946F6D10146F4E701980DB093
:100A7000F0BD0120870227439B4B9F42059906D07A
:100A800006999E31994800F02BFD974B0599E06837
:100A90003040E060144AF232C809104320669F4299
:100AA00003D09248069900F01BFD0A98401E029A56
:100AB00063692B4059425941002B03D0401CF7D3A6
:100AC000032000E000200029039900D104E720461C
:100AD000FFF77CFE0546204600F0CCF8002D00D143
:100AE000FAE60B200DB0F0BDFF030000005C0040F3
:100AF0007A180000FF80FFFFF0B581B00B46044676
:100B0000012081022143ED4FB94213D065218E00AF
:100B100031467B31EA4D0090284617461D4600F0CD
:100B2000DFFC3736E648314600F0DAFC2B46009809
:100B30003A46E24F61698901890F01D001B0F0BDE9
:100B40007F200002E1688143E160D809062101406D
:100B500011434F20000108432066012086022546EC
:100B60003543BD4206D065208100D5481F4600F0C0
:100B7000B7FC3B46FF20C743781C6169314003D076
:100B8000421C00281046F8D1002911D1D8B22066A5
:100B9000CA48854204D065208100C94800F0A0FC05
:100BA0006069304207D07F1CFAD30A2001B0F0BD43
:100BB000032001B0F0BD002001B0F0BD005C00409A
:100BC0007A180000F0B583B000920F460446012663
:100BD000B502054365208200B84B9D4207D01146FF
:100BE0004831B748029200F07BFCB44B029A78B2CD
:100BF000002822D49D422DD160698001800F36D11A
:100C00007F200002E1688143E16078000099084399
:100C100001218D024019206620462843984203D0C6
:100C2000A748114600F05CFCFF20C04361692942DF
:100C30001CD0401CFAD30A2619E011464931A048BD
:100C4000029201971F4600F04BFC3B46019F029A1F
:100C50009D42D1D0114637319948154601971F461C
:100C600000F03EFC3B46019F2A46C5E70026304681
:100C700003B0F0BDF0B581B004460126B7020743CA
:100C8000FC4B9F420BD0652085002946B531FA48C0
:100C900000F026FCF848294600F022FCF54BFF2026
:100CA000C543681C6169314003D1421C00281046CD
:100CB000F8D10A20002911D0652189000E466C3632
:100CC00026669F4205D0EC4A0746104600F008FC15
:100CD00038466169314203D16D1CFAD301B0F0BDD1
:100CE000002001B0F0BDC046005C00407A18000052
:100CF000F0B587B00446880A0B26002816D1002CD0
:100D000014D0002A12D00492002B0FD01D46080ADE
:100D100005D1C9B200222046FFF754FF03E00022AC
:100D20002046FFF7E9FE0646002802D0304607B00D
:100D3000F0BD2A46652080000190FE20C0430125B9
:100D4000069003E000290698059A41D1110402910A
:100D50003BD00126B70223463B43C64903938B424F
:100D600006D0C5480199059200F0BAFB059A06988D
:100D7000521E059202E0401C012B07D04242424124
:100D8000616931402B46F6D11346F4E70A26002963
:100D90001DD0049908782066B648039A82420698C6
:100DA00005D0B548019900F09BFB04990698491CB1
:100DB000049102E0401C012BC4D0424242416169CF
:100DC00039402B46F6D01346F4E7002600E006989B
:100DD00002990127BA022243002938D0A549059279
:100DE0008A4210D00496019E3146B531A24800F0E7
:100DF00077FBA1483146049E00F072FB069802E0A2
:100E0000401C012B07D042424241616939402B46C8
:100E1000F6D11346F4E7002988D0374601980646F4
:100E20006C3626669349059A8A4203D00146924859
:100E300000F056FB069A02E0521C00293AD15042BB
:100E40005041616931422946F6D10146F4E78949AA
:100E500005928A420ED0019E3146B531864800F097
:100E60003FFB8548314600F03BFB069802E0401C02
:100E7000012B07D042424241616939402B46F6D1ED
:100E80001346F4E70A26002900D14FE701980546EA
:100E90006C3525667749059A8A4203D00146764823
:100EA00000F01EFB0698401E6169294204D1401CD7
:100EB000FAD33BE73E4639E7002637E7005C0040BF
:100EC0007A180000F0B58DB017460B46064601258E
:100ED000A8023043B16A3269019209030C0F6549D7
:100EE000884208D0FF21243163480C951D4600F04C
:100EF000F7FA2B460C9D3069A843029630610A2010
:100F00000693584309900020C1430791A11C0A9100
:100F100005950390049006E02F460C9D0B9A501CFB
:100F20006D00072A36D20B900C95EEB20998314627
:100F300000F0A8FB394600F0A5FB401D0A2100F097
:100F4000A1FB04460A98314600F09CFB3D4607464B
:100F5000201A811ECCB27820C01BA042DCD308919D
:100F60000698314600F08EFB3919891C00F08AFB87
:100F7000411B2F4600D2391A0C9D0B9A07988142CB
:100F80000898CCD200290492039007910595C6D108
:100F900003A925C10598C4B20A98214600F072FB46
:100FA0000399CDB2281A46083420069948430C9775
:100FB000394600F067FB214600F064FB642100F035
:100FC00061FB0B95281A401C3546F7B27E1E8742FE
:100FD000FAD806980C9900F055FB0646214600F019
:100FE00051FB0C901421304600F04CFBA11C8842B0
:100FF000029E12D9B16A0A0E0F2113460B40041B40
:10100000A41EA34202D2059A821A0E3210070009CA
:101010000906B26A8A438018B0623F2001040C9C22
:10102000E20352180A400B99491B0140BB069B0C76
:10103000591889180006A205121802408818B064D1
:101040000720049A0240716A8143881870620198EF
:10105000C0070DD00124A0023043BD49884204D00E
:10106000FF212431BB4800F03BFA30692043306156
:101070000DB0F0BD005C00407A180000F0B5C3B0C0
:101080000C4602A90B25002839D0002B37D001913E
:101090001D4F4899CE197F1CBFB2B6B2BE422ED3A7
:1010A00002AD032A2ED86D1C0127C0467A4412795E
:1010B000520097440C010509019A951C022706E08D
:1010C000019AD51C032702E0019A151D04270E463C
:1010D0000190F80002AA08382146C1401170521C44
:1010E0000028F8D1284619463246FFF787F8F0194C
:1010F00083B2502102AA0198FFF7FAFD054628465F
:1011000043B0F0BD0B25FAE7FFFEFFFFB0B50C467C
:101110000D490A680169C90707D0002A05D0A10056
:101120000A4B595805469047284611210901415854
:10113000C90708D006490968002904D0A100054A5A
:10114000515800F009F8B0BD84000020780000205C
:101150009400002088000020F0B583B0002900D161
:10116000F3E043229200841803229502A7683D40D1
:1011700005D020220A707A0515D5682617E01523B8
:101180001B01C318029315023D4065D000264E7026
:10119000CA69CE6000920A610122019212023A40AD
:1011A00025D0102324E03A05D217672616400122E5
:1011B00092020243664B9A4209D0664A664B0190FE
:1011C00010460F46194600F08BF9019839462268FF
:1011D000AA432260CE600A7E920600D4B5E00B6A74
:1011E000002B00D1B1E04A6A984703B0F0BD20233C
:1011F0000B70002A00D10E754A7D002A03D04E756F
:10120000009A521E0A61019A92020243504B9A427E
:1012100009D0504A504B019010460091194600F0F9
:101220005FF9019800992268AA432260029A5660E9
:101230000A788B69134208D00B6A002B05D04A6AE2
:1012400004460D46984720462946BA0504D50E6047
:101250004E608E60CE600E617A0711D501220A7051
:10126000029B1B680A754B700A7ED20708D00B6A76
:10127000002B05D04A6A04460D4698472046294669
:101280003A070DD508220A700A7E120708D50B6AA4
:10129000002B05D04A6A04460D4698472046294649
:1012A000FA0725D001224A754A68002A02D08A68C6
:1012B000002A0CD102220A700B6A002B05D04A6A60
:1012C00004460D469847204629460022CA614A68CE
:1012D000002A0DD08B68002B0AD0531C4B6012786B
:1012E000029B1A618A68521E8A60CA69521CCA61CE
:1012F000BA072AD54A68002A02D08A68002A0CD187
:1013000004220A700B6A002B05D04A6A04460D4677
:101310009847204629460022CA614A68002A11D00F
:101320008B68002B0ED017231B01C0180068531CBC
:101330004B6010708868401E8860C869401CC86196
:1013400003B0F0BD01200299486003B0F0BDC04673
:10135000005C00407A1800002705000070477047C5
:10136000704770477047704770477047F0B581B05D
:101370000B220146D1418A1E4D4E4C4F4D4CB54D6E
:101380000E2A19D20121C90201430322D20291423D
:101390002CD10F21C90222680A400121C9028A42C8
:1013A00003D139883140014321602A461032214659
:1013B00010390968114327E00029E3D0012902D13F
:1013C0002A463032F3E7FF2132311E4A00901046A0
:1013D00000F086F800980321C9028842D9D0012183
:1013E0000A039042D5D0C9028842E9D02168490455
:1013F000890F03D1398831400143216021461039DA
:101400000A681149114029432246103A116039886F
:10141000314008432060681C214614390A680243A1
:101420000A600A48024691B20A1893B29B1A5D1EDE
:10143000AB4125682D0401D4002BF4D1484248412A
:1014400001B0F0BDA51800008FFF0000FFFF0000F5
:1014500070470000B0B5154A148815490C4015486E
:101460000568154B1D402C1904605288134C14401C
:101470008568134A15402C19846004686405114D71
:10148000AC4204D104681C400919853901608168A7
:10149000C9050D4B994204D18168114059220A4374
:1014A00082600A480A490160B0BDC046C00710000A
:1014B000FF0700001840004000F8FFFFFF01000098
:1014C00000FEFFFF0000E0FF000080FF00000020A2
:1014D00000093D007047704770477047704770477C
:1014E00000BFFEE78EB05A4D28685A4E304302279F
:1014F0003843286001242046FEF702FF5648016861
:10150000314318220A4302602003FFF72FFF2868A7
:10151000B84330432860686830434021069108434F
:101520006860002009900890059007902868304373
:10153000202101432960494F386849490840032167
:101540000A060492801838603868464A1040090735
:1015500003914018386021200890C0200790384639
:10156000183807A9FEF7F6FE3F4D2846FEF772FF32
:1015700007AE3046FFF7CCF83C4A28463146FEF726
:1015800099FF28462146FEF74BFF61062846FFF7E4
:10159000D1F8002826D138683149084038603868C9
:1015A000304908403860069D3D64802002903864D0
:1015B00004263046FEF7C0FE7D643046FEF7BCFED2
:1015C000029878647D20C000FEF7B6FE3868244992
:1015D0000840049908433860386822490840039954
:1015E00008433860234E059D0695082700971E483E
:1015F00029462A463346FFF741FD1F4908701C481B
:10160000FEF79AFE0097184839462A461B4BFFF70B
:1016100035FD194F38701648FEF78EFE10200090E9
:10162000114829462A46164BFFF7B2F83870069A39
:10163000571C284621183154401C0828FAD10F2A7B
:1016400005D20B48FEF778FE641C0697CDE7FEE74F
:101650003040004000005A5A04200240180100485F
:10166000FFFFFFF0FFFFFF0F00580040006CDC029F
:101670003075000004000020A80000200C000020AD
:101680009800002043088B421AD3002203098B42A2
:1016900079D3030A8B425ED3030B8B4242D3030CF4
:1016A0008B4227D30902FF2212BA030C8B4202D3CA
:1016B0001212090203D0030B8B4233D31AE0D3E09A
:1016C000411A8041401C704703460B4371D44308C4
:1016D0008B42F5D3002203098B4254D3030A8B4279
:1016E00039D3030B8B421DD3030C8B4202D3944698
:1016F0006EE0090AC30B8B4201D3CB03C01A5241DF
:10170000830B8B4201D38B03C01A5241430B8B4294
:1017100001D34B03C01A5241030B8B4201D30B037D
:10172000C01A5241C30A8B4201D3CB02C01A5241A4
:10173000830A8B4201D38B02C01A5241430A8B4267
:1017400001D34B02C01A5241030A8B4201D30B0250
:10175000C01A5241CDD2C3098B4201D3CB01C01A6A
:10176000524183098B4201D38B01C01A5241430974
:101770008B4201D34B01C01A524103098B4201D362
:101780000B01C01A5241C3088B4201D3CB00C01ACF
:10179000524183088B4201D38B00C01A5241430847
:1017A0008B4201D34B00C01A5241411A52411000E2
:1017B0007047CA0F00D04942031000D34042534043
:1017C00000229C4603098B422DD3030A8B4212D37D
:1017D0008901FC2212BA030A8B420CD389019211AF
:1017E0008B4208D3890192118B4204D3890137D0EF
:1017F000921100E08909C3098B4201D3CB01C01AC1
:10180000524183098B4201D38B01C01A52414309D3
:101810008B4201D34B01C01A524103098B4201D3C1
:101820000B01C01A5241C3088B4201D3CB00C01A2E
:10183000524183088B4201D38B00C01A5241D9D246
:1018400043088B4201D34B00C01A5241411A00D2C7
:1018500001465241104663465B1000D34042704738
:1018600063465B1000D3404201B50021004201D025
:10187000C9430846C046C04602BD2E2E2F2E2E2F2D
:101880002E2E2F2E2E2F4C69627261726965732F76
:101890007372632F637733326C3031325F6C7069EF
:1018A00032632E63002E2E2F2E2E2F2E2E2F2E2E15
:1018B0002F4C69627261726965732F7372632F6353
:1018C0007733326C3031325F7379736374726C2E9C
:1018D00063002E2E2F2E2E2F2E2E2F2E2E2F4C69C4
:1018E000627261726965732F7372632F637733322B
:1018F0006C3031325F666C6173682E6300000000EB
:101900002019000000000020180000001C01000049
:101910003819000018000020980600003C01000063
:1019200000093D00660203040560702055AAAA550F
:0819300055AA55AA00000000B1
:04000005000000C136
:00000001FF
